S00B00004750532E737265632F
S11300000C94D6000C94F3000C94F3000C94F300BD
S11300100C94F3000C94F3000C94F3000C94F30090
S11300200C94F3000C94F3000C94F3000C94F30080
S11300300C94F3000C94F3000C94F3000C94F30070
S11300400C94F3000C94F3000C94F3000C94F30060
S11300500C94F3000C94F3000C94F3000C94F30050
S11300600C94F3000C94F3006364696E6F70737501
S113007078585B0000000000000000000000000051
S1130080000000000C0C0000000000000000000054
S11300900000000000000000000000000C0C000044
S11300A000000000F0F81C0C0C0C0C1CF8F0000014
S11300B00F1F3830303030381F0F00000010181C6C
S11300C0FCFC000000000000003030303F3F3030C6
S11300D03000000030381C0C0C0C8CDCF870000074
S11300E0383C3633313131303C3C000010181C0CA4
S11300F0CCCCCCFCF8B0000018383030303030387C
S11301001F0F00000080C0603018FCFC00000000DD
S11301100707060606063F3F06060000FCFC4C4C9B
S11301204C4C4CCC8C0C0000193930303030303809
S11301301F0F0000F0F89C4C4C4C4CCC8C00000081
S11301400F1F3830303030381F0F00000C0C0C0CEF
S11301508CCCEC7C3C1C000000003C3F0301000004
S113016000000000F0F8DC8C8C8C8CDCF8F00000D3
S11301700E1F3B313131313B1F0E0000F0F89C0C57
S11301800C0C0C9CF8F00000181133333333333962
S11301901F0F0000000000003030000000000000CD
S11301A0000000000C0C00000000000011241FBE21
S11301B0CFEFD8E0DEBFCDBF13E0A0E0B1E0ECEAC2
S11301C0FCE102C005900D92A032B107D9F723E0FB
S11301D0A0E2B3E001C01D92A937B207E1F70E9483
S11301E083030C94540E0C9400002F923F924F9270
S11301F05F926F927F928F929F92AF92BF92CF92B3
S1130200DF92EF92FF920F931F93CF93DF93EC0152
S11302101B0188818D3219F4219601E001C000E0B0
S1130220C12CD12C76011FC080ED810F8A30D0F40F
S113023020E030E040E251E4C701B6010E946607C5
S11302406B017C01612F70E060537109072E000C73
S1130250880B990B0E94DA06A70196010E94C40537
S11302606B017C0121961881112311F01E32E1F6F5
S11302701E32C1F521960F2E412C512CF0E86F2E21
S1130280FFE37F2EF02D812C912C540125C020E01A
S113029030E040E251E4C501B4010E9466074B011D
S11302A05C01612F70E060537109072E000C880B0C
S11302B0990B0E94DA06A50194010E94C4054B0122
S11302C05C0120E030E040E251E4C301B2010E944D
S11302D066072B013C012196188180ED810F8A303D
S11302E0B0F20BC00F2E412C512CF0E86F2EFFE31F
S11302F07F2EF02D812C912C5401A3019201C50174
S1130300B4010E9430069B01AC01C701B6010E94F2
S1130310C40501119058F101608371838283938332
S1130320DF91CF911F910F91FF90EF90DF90CF90CD
S1130330BF90AF909F908F907F906F905F904F9001
S11303403F902F9008950F931F93CF93DF9300D086
S113035000D0CDB7DEB7162F072FBE016F5F7F4FDA
S11303600E94F50069817A818B819C8126E53EE0BB
S11303704DEE5FE30E94660769837A838B839C83D7
S11303800E94A2067F936F9380E091E09F938F93E6
S11303900F931F930E9436080F900F900F900F90A9
S11303A00F900F900F900F900F900F90DF91CF91BF
S11303B01F910F9108950F931F93CF93DF9300D054
S11303C000D000D0CDB7DEB7162F072F9E012B5FCC
S11303D03F4F3F932F93225031093F932F93225045
S11303E031093F932F9323E031E03F932F939F9361
S11303F08F930E94580829813A812B5F3F4F3A839B
S113040029838B819C814E969C838B830FB6F894B1
S1130410DEBF0FBECDBF8C3391053CF0CC979C83DF
S11304208B832F5F3F4F3A83298389819A81883157
S113043091051CF048979A8389838E818F938D81CF
S11304408F938C818F938B818F938A818F938981F2
S11304508F938DE091E09F938F930F931F930E944E
S113046036080FB6F894DEBF0FBECDBF26960FB682
S1130470F894DEBF0FBECDBFDF91CF911F910F91D6
S11304800895EF92FF920F931F93CF938C017B01FA
S113049046E050E06AE171E00E940108892B51F0C6
S11304A046E050E061E271E0C8010E940108892B36
S11304B009F04BC068E271E0C8010E94F5078C01A5
S11304C0C0E032C0CF5FC23029F4B80184E293E0C7
S11304D00E94FA07C43029F4B801C7010D960E949E
S11304E0FA07C53029F4B801C7014D960E94FA07EE
S11304F0C63029F4B801C7014F960E94FA07C730E5
S113050029F4B801C7018F960E94FA07C83029F46C
S1130510B801C701CB960E94FA0768E271E080E057
S113052090E00E94F5078C010115110559F6B701F9
S113053084E293E00E94DB01B7016F5C7F4FC70147
S1130540CB960E94A30181E001C080E0CF911F916E
S11305500F91FF90EF900895CF93DF93EC0146E065
S113056050E06AE171E00E940108892B49F046E0FD
S113057050E061E271E0CE010E940108892B29F468
S113058060E373E0CE010E944102DF91CF910895B0
S11305901092B90088E48093B80080E090E0089558
S11305A084EA8093BC008091BC008823E4F708951A
S11305B084E98093BC0008958093BB0084E8809311
S11305C0BC008091BC008823E4F708950F931F9327
S11305D0CF93DF93CDB7DEB72C970FB6F894DEBF79
S11305E00FBECDBF8C01809122039091230380170D
S11305F0910711F00E9473041093230300932203C4
S11306000230110509F443C00330110509F460C038
S11306100130110509F06CC08E010F5F1F4F8CE093
S1130620F80111928A95E9F7E0E3F3E0338122813E
S1130630918180811F923F931F922F931F929F93CA
S11306401F928F938AE291E09F938F931F930F934E
S11306500E943608A8016EE170E080E090E00E94FC
S1130660570541E653E068E270E082E090E00E94C2
S1130670570544E351E060E570E083E090E00E94B8
S11306802D050FB6F894DEBF0FBECDBF31C04DE3CC
S113069053E060E070E080E090E00E942D054DE4BE
S11306A053E062E470E080E090E00E942D054FE4A6
S11306B053E060E070E082E090E00E942D054FE599
S11306C053E062E470E082E090E00E942D0510C0E7
S11306D04BE653E06AE070E082E090E00E94570548
S11306E049E351E06AE570E083E090E00E942D0563
S11306F02C960FB6F894DEBF0FBECDBFDF91CF911D
S11307001F910F910895CF93DF93CDB7DEB7C957EB
S1130710D1090FB6F894DEBF0FBECDBF1AB80E9440
S1130720C8020E940D040E94730460E875E280E030
S113073090E00E949205AE014F5F5F4F84E1DA01C1
S11307401D928A95E9F785E4E0E3F3E0DF011D9269
S11307508A95E9F760E070E080E090E00E942D0562
S1130760E12CF12CAA24A394B12CC12CD12C06C0C9
S113077000E010E0AA24A394B12C780187010F5F54
S11307801F4FCE0145960E94B9058823B1F32D89E8
S1130790243211F0C60102C080E090E06C01BFEF8A
S11307A0CB1ADB0AE6E1F0E0EC0FFD1FE80FF91FBE
S11307B020832A3011F7E6E1F0E0EC0FFD1FEC0D89
S11307C0FD1D1082CE0146960E94AC02C5010E9416
S11307D0E60287010E5F1F4F083C110574F24C9925
S11307E003C0EFEFAE1ABE0AF4E0AF16B1040CF08A
S11307F0BFCF00E010E0C1CFCF93C82F0E94D0023A
S113080088E70E94DC0280E00E94DC028C2F0E94B8
S1130810DC020E94D802CF9108952FEF81EE94E07C
S1130820215080409040E1F700C000008EEA0E9411
S1130830FC0385ED0E94FC0380E80E94FC0388EA27
S11308400E94FC038FE10E94FC0383ED0E94FC03E1
S113085080E00E94FC0380E40E94FC038DE80E9477
S1130860FC0384E10E94FC0380E20E94FC0380E01C
S11308700E94FC0381EA0E94FC0388EC0E94FC03B2
S11308808AED0E94FC0382E00E94FC0381E80E943E
S1130890FC038FE70E94FC0389ED0E94FC0381EFB7
S11308A00E94FC038BED0E94FC0380E40E94FC0385
S11308B084EA0E94FC0386EA0E94FC038FEA0E94F9
S11308C0FC030895CF93C82F0E94D00288E70E94AA
S11308D0DC0280E40E94DC028C2F0E94DC020E9475
S11308E0D802CF910895CF93DF93D0E013C080EB6B
S11308F08D0F0E94FC0380E00E94FC0380E10E94B3
S1130900FC03C0E004C080E00E946204CF5FCC23FB
S1130910D4F7DF5FD43058F3DF91CF910895DF929D
S1130920EF92FF920F931F93CF93DF93FA0190817D
S1130930C92FD0E0AE979E529D3008F062C07B0173
S1130940D82E00E010E014C0FE01EE0FFF1FEC0FE4
S1130950FD1FEE0FFF1FEE0FFF1FEE0FFF1FE00F37
S1130960F11FEC58FF4F84910E9462040F5F1F4FE8
S11309700C3011054CF381EB8D0D0E94FC038E2D80
S11309808F700E94FC03C70195958795959587956F
S113099095958795959587958F70805F0E94FC0348
S11309A00CE010E014C0FE01EE0FFF1FEC0FFD1F62
S11309B0EE0FFF1FEE0FFF1FEE0FFF1FE00FF11FE3
S11309C0EC58FF4F84910E9462040F5F1F4F08315F
S11309D011054CF380EB8D0D0E94FC038EE08E0D0F
S11309E08F700E94FC03C7010E9695958795959587
S11309F0879595958795959587958F70805F0E94CB
S1130A00FC03DF91CF911F910F91FF90EF90DF9046
S1130A100895CF93DF93FC01D08180EE8D0F803653
S1130A20C8F4C0E012C08D2F90E08097FC01EE0F57
S1130A30FF1FEE0FFF1FE80FF91FE15CFE4FEC0FE5
S1130A40F11D80810E946204CF5FC53060F380E0B5
S1130A500E946204DF91CF9108950F931F93CF9367
S1130A60DF938B01EA0180550E94FC03802F8F7075
S1130A700E94FC03159507951595079515950795FF
S1130A8015950795802F8F70805F0E94FC0307C027
S1130A908E010F5F1F4FCE010E940905E801888176
S1130AA08111F6CFDF91CF911F910F910895CF92CD
S1130AB0DF92EF92FF920F931F93CF93DF93D82E81
S1130AC0C92E8B01EA0180EB8D0D0E94FC03802F5F
S1130AD08F700E94FC03C80195958795959587951D
S1130AE095958795959587958F70805F0E94FC03F7
S1130AF00DC07E018FEFE81AF80AAE01B8018D2D02
S1130B009C2D0E948F04025F1F4FE7018881811191
S1130B10F0CFDF91CF911F910F91FF90EF90DF9075
S1130B20CF900895DC01CB01880F991FAA1FBB1F2A
S1130B30880F991FAA1FBB1F9C01AD01220F331FF1
S1130B40441F551F220F331F441F551F60E074E2DA
S1130B5084EF90E00E94D307215031093093C500FF
S1130B602093C40088E18093C10086E08093C20092
S1130B700895FC019091C0009923E4F78091C60088
S1130B80808381E008955058BB27AA270E94DB0583
S1130B900C942C070E941E0738F00E94250720F0B1
S1130BA039F49F3F19F426F40C941B070EF4E095D6
S1130BB0E7FB0C941507E92F0E943D0758F3BA1779
S1130BC0620773078407950720F079F4A6F50C945F
S1130BD05F070EF4E0950B2EBA2FA02D0B01B9017F
S1130BE090010C01CA01A0011124FF27591B99F09F
S1130BF0593F50F4503E68F11A16F040A22F232FAB
S1130C00342F4427585FF3CF469537952795A795FA
S1130C10F0405395C9F77EF41F16BA0B620B730BA1
S1130C20840BBAF09150A1F0FF0FBB1F661F771F12
S1130C30881FC2F70EC0BA0F621F731F841F48F4C7
S1130C40879577956795B795F7959E3F08F0B0CF50
S1130C509395880F08F09927EE0F97958795089537
S1130C600E9444060C942C070E94250758F00E9409
S1130C701E0740F029F45F3F29F00C941507511129
S1130C800C9460070C941B070E943D0768F399239A
S1130C90B1F3552391F3951B550BBB27AA27621774
S1130CA07307840738F09F5F5F4F220F331F441F81
S1130CB0AA1FA9F335D00E2E3AF0E0E832D09150B5
S1130CC05040E695001CCAF72BD0FE2F29D0660FA2
S1130CD0771F881FBB1F261737074807AB07B0E8E5
S1130CE009F0BB0B802DBF01FF2793585F4F3AF0EB
S1130CF09E3F510578F00C9415070C9460075F3FF4
S1130D00E4F3983ED4F3869577956795B795F79570
S1130D109F5FC9F7880F911D9695879597F9089558
S1130D20E1E0660F771F881FBB1F621773078407F4
S1130D30BA0720F0621B730B840BBA0BEE1F88F703
S1130D40E09508950E94A9066894B1110C94600777
S1130D5008950E94450788F09F5798F0B92F992766
S1130D60B751B0F0E1F0660F771F881F991F1AF092
S1130D70BA95C9F714C0B13091F00E945F07B1E091
S1130D8008950C945F07672F782F8827B85F39F090
S1130D90B93FCCF3869577956795B395D9F73EF42B
S1130DA090958095709561957F4F8F4F9F4F0895D3
S1130DB0E89409C097FB3EF49095809570956195F1
S1130DC07F4F8F4F9F4F9923A9F0F92F96E9BB27A7
S1130DD09395F695879577956795B795F111F8CF23
S1130DE0FAF4BB0F11F460FF1BC06F5F7F4F8F4F8E
S1130DF09F4F16C0882311F096E911C0772321F084
S1130E009EE8872F762F05C0662371F096E8862F1B
S1130E1070E060E02AF09A95660F771F881FDAF772
S1130E20880F9695879597F9089597F99F6780E8B5
S1130E3070E060E008959FEF80EC089500240A9428
S1130E401616170618060906089500240A941216A1
S1130E501306140605060895092E0394000C11F4D4
S1130E60882352F0BB0F40F4BF2B11F460FF04C081
S1130E706F5F7F4F8F4F9F4F089557FD9058440FDA
S1130E80551F59F05F3F71F04795880F97FB991FE5
S1130E9061F09F3F79F087950895121613061406A2
S1130EA0551FF2CF4695F1DF08C01616170618062F
S1130EB0991FF1CF86957105610508940895E8940A
S1130EC0BB2766277727CB0197F908950E947907F6
S1130ED00C942C070E941E0738F00E94250720F06E
S1130EE0952311F00C9415070C941B0711240C94F2
S1130EF060070E943D0770F3959FC1F3950F50E082
S1130F00551F629FF001729FBB27F00DB11D639FB7
S1130F10AA27F00DB11DAA1F649F6627B00DA11D5D
S1130F20661F829F2227B00DA11D621F739FB00D03
S1130F30A11D621F839FA00D611D221F749F332773
S1130F40A00D611D231F849F600D211D822F762F0C
S1130F506A2F11249F5750409AF0F1F088234AF0E9
S1130F60EE0FFF1FBB1F661F771F881F9150504055
S1130F70A9F79E3F510580F00C9415070C94600767
S1130F805F3FE4F3983ED4F3869577956795B795DC
S1130F90F795E7959F5FC1F7FE2B880F911D9695F6
S1130FA0879597F90895A1E21A2EAA1BBB1BFD0190
S1130FB00DC0AA1FBB1FEE1FFF1FA217B307E40734
S1130FC0F50720F0A21BB30BE40BF50B661F771F8C
S1130FD0881F991F1A9469F760957095809590956C
S1130FE09B01AC01BD01CF01089540E253E00E9492
S1130FF00F080895FB01DC0101900D920020E1F738
S11310000895FB01DC014150504030F08D91019076
S1131010801919F40020B9F7881B990B0895FA0177
S1131020A191B081009719F41097E1F0CD01DC0192
S1131030CD010D90002011F4C00113C0FB012191DA
S1131040222319F02015D9F7F3CFFB0121912015A4
S113105019F41E92119606C02223C1F70D900020A8
S1131060A1F7D001FA01A193B0830895AEE0B0E0F6
S1131070ECE3F8E00C942B0E0D891E8986E08C833A
S11310801A8309838FEF9FE79E838D83AE01475EAA
S11310905F4F6F89788DCE0101960E947108EF81B0
S11310A0F885E00FF11F10822E96E4E00C94470EB1
S11310B0AEE0B0E0EEE5F8E00C942D0E85E08C8314
S11310C08B899C899A838983AE01495E5F4F6D89C0
S11310D07E89CE0101960E94EE0B2E96E2E00C94DE
S11310E0490EABE0B0E0E7E7F8E00C941D0E6C01AC
S11310F07B018A01FC0117821682838181FFCCC1A6
S1131100CE0101963C01F6019381F70193FD85918F
S113111093FF81917F01882309F4BAC1853239F4A0
S113112093FD859193FF81917F01853229F4B60166
S113113090E00E94670DE7CF912C212C312CFFE128
S1131140F315D8F08B3279F038F4803279F08332A9
S1131150A1F4232D20611DC08D3261F0803369F428
S1131160232D216016C0832D8260382EE32DE46088
S11311703E2E2AC0F32DF8601DC037FC2DC020ED93
S1131180280F2A3040F08E32B9F436FC81C1232D69
S11311902064322E19C036FE06C08AE0989E200DC7
S11311A01124922E11C0EAE02E9E200D1124222E2D
S11311B0F32DF0623F2E08C08C3621F4832D806815
S11311C0382E02C0883641F4F70193FD859193FFD0
S11311D081917F018111B3CF982F9F7D95549330D6
S11311E028F40C5F1F4F9FE399830DC0833631F0C1
S11311F0833771F0833509F059C021C0F80180812B
S113120089830E5F1F4F88248394912C530113C04C
S11312102801F2E04F0E511CF801A080B18036FE87
S113122003C0692D70E002C06FEF7FEFC5010E941B
S11312301E0D4C018201F32DFF773F2E16C02801AD
S113124022E0420E511CF801A080B18036FE03C09A
S1131250692D70E002C06FEF7FEFC5010E94130D8E
S11312604C01F32DF0683F2E820133FC1BC0822D0C
S113127090E088169906B0F4B60180E290E00E94EE
S1131280670D2A94F4CFF50137FC859137FE8191DF
S11312905F01B60190E00E94670D21102A9421E0BD
S11312A0821A91088114910471F7E8C0843611F010
S11312B0893641F5F80137FE07C06081718182816A
S11312C093810C5F1F4F08C060817181072E000C51
S11312D0880B990B0E5F1F4FF32DFF763F2E97FF60
S11312E009C090958095709561957F4F8F4F9F4F62
S11312F0F0683F2E2AE030E0A3010E94BC0D882E46
S1131300861845C0853731F4232D2F7EB22E2AE06E
S113131030E025C0932D997FB92E8F36C1F018F493
S1131320883579F0B5C0803719F0883721F0B0C01E
S1131330E92FE061BE2EB4FE0DC0FB2DF460BF2E7C
S113134009C034FE0AC0292F2660B22E06C028E048
S113135030E005C020E130E002C020E132E0F801D5
S1131360B7FE07C060817181828193810C5F1F4F3A
S113137006C06081718180E090E00E5F1F4FA30181
S11313800E94BC0D882E8618FB2DFF773F2E36FE5B
S11313900DC0232D2E7FA22E891458F434FE0BC0C9
S11313A032FC09C0832D8E7EA82E05C0B82CA32C38
S11313B003C0B82C01C0B92CA4FE0FC0FE01E80D77
S11313C0F11D8081803321F49A2D997EA92E09C0C4
S11313D0A2FE06C0B394B39404C08A2D867809F0A3
S11313E0B394A3FC11C0A0FE06C0B21488F4280C68
S11313F0922C9B180EC0B21460F4B60180E290E007
S11314000E94670DB394F7CFB21418F42B1802C0DE
S1131410982C212CA4FE10C0B60180E390E00E9419
S1131420670DA2FE17C0A1FC03C088E790E002C0CC
S113143088E590E0B6010CC08A2D867859F0A1FEAB
S113144002C08BE201C080E2A7FC8DE2B60190E00D
S11314500E94670D891438F4B60180E390E00E947D
S1131460670D9A94F7CF8A94F301E80DF11D8081FA
S1131470B60190E00E94670D8110F5CF222009F497
S113148042CEB60180E290E00E94670D2A94F6CF26
S1131490F6018681978102C08FEF9FEF2B96E2E1E0
S11314A00C94390E20FD09C0FC0123FD05C022FF68
S11314B002C07383628351834083089544FD17C03F
S11314C046FD17C0AB01BC01DA01FB01AA0FBB1F2B
S11314D0EE1FFF1F1094D1F74A0F5B1F6E1F7F1F73
S11314E0CB01BA01660F771F881F991F09C033E02B
S11314F001C034E0660F771F881F991F3150D1F760
S1131500620F711D811D911D08950F931F93CF9339
S1131510DF938C01C8010E94290DEC0197FD08C0DE
S11315200E94FF0C892BB1F7B801CE010E94A30DD4
S1131530CE01DF91CF911F910F9108958F929F92C9
S1131540AF92BF92EF92FF920F931F93CF93DF93CB
S11315508C01D62F7A01B22E0E94290D9C013327CB
S11315602B32310531F02D32310561F48B2D806839
S1131570B82ED15011F480E068C0C8010E94290D32
S113158097FDF9CFCB2DCD7F2B2D207309F580331B
S1131590F9F4AA24AA94AD0E09F443C0C8010E9428
S11315A0290D97FD3EC09C012F7D33272835310539
S11315B049F4C264D250A9F1C8010E94290D97FFD1
S11315C007C02FC0B6FE02C0C26001C0C261DA2DDE
S11315D0812C912C540120ED280F283080F0C4FF79
S11315E004C0B8010E94A30D19C02A3040F0C6FF00
S11315F0F8CF2F7D3FEE320F363098F727504C2F1F
S1131600C501B4010E945E0A4B015C01C260D15065
S113161059F0C8010E94290D97FFDDCFC1FD04C018
S1131620AACF812C912C5401C7FF08C0B094A09478
S113163090948094811C911CA11CB11C2C2FB50189
S1131640A401C7010E94520A81E0DF91CF911F914A
S11316500F91FF90EF90BF90AF909F908F9008955F
S1131660A0E2B0E0E6E3FBE00C94200E5C01962ED1
S11316707A01F9018E010F5F1F4F680180E2D801E2
S11316801D928A95E9F7D50113968C9080E090E03D
S1131690612C712C30E061E070E083FC259183FEC5
S11316A021918F01522E211103C080E090E092C05D
S11316B02E3511F4009751F1432F50E04817590784
S11316C03CF42D3559F12D3219F4772009F103C07A
S11316D0772009F46AC0452D469546954695D6016E
S11316E0A40FB11D452D47708B0102C0000F111FBF
S11316F04A95E2F7A8015C91452B4C93651459F087
S1131700561410F45394E7CF5A94E5CF31E004C053
S11317107724739401C0712C0196BFCF772019F000
S11317208E8180628E83311103C08824839417C014
S1131730F6019E012F5D3F4F8081809581932E1786
S11317403F07D1F7F2CFE114F10429F0D7018C93CC
S1131750F70131967F019A94812C9920F9F0C50103
S11317600E94290D97FD18C0FC01FF2723E0F59581
S1131770E7952A95E1F7EC0DFD1D208130E0AC01E1
S11317804770552702C0359527954A95E2F720FD05
S1131790DACFB5010E94A30D811087CFE114F104C3
S11317A011F0D7011C92C80115C0422F46954695E9
S11317B04695D601A40FB11D422F47708B0102C07C
S11317C0000F111F4A95E2F7A8015C91452B4C9339
S11317D0622EA2CFA096EFE00C943C0EA0E0B0E005
S11317E0E4EFFBE00C94200E6C01EB015A01FC01C8
S11317F017821682512CF601E380FE01E3FC8591E9
S1131800E3FE8191182FEF01882309F4EEC090E0E4
S11318100E94FF0C892B21F0C6010E94850AEBCFA0
S1131820153241F4FE01E3FC1591E3FE1191EF0141
S1131830153281F4C6010E94290D97FDD4C0412FB1
S113184050E09C01332724173507A9F2B6010E9402
S1131850A30DCBC01A3239F4E3FC1591E3FE1191C8
S1131860EF0101E001C000E0F12C20ED210F2A304E
S113187080F402606F2D70E080E090E040E20E940E
S11318805E0AF62EFE01E3FC1591E3FE1191EF01D1
S1131890ECCF01FF03C0F11003C0A7C0FF24FA94EA
S11318A0183619F01C3651F010C0FE01E3FC1591F6
S11318B0E3FE1191EF01183641F408600460FE0163
S11318C0E3FC1591E3FE1191EF01112309F48DC09E
S11318D0612F70E088E690E00E94080D892B09F4DE
S11318E084C000FD07C0F50180809180C501029687
S11318F05C0102C0812C912C1E3651F4F601468104
S1131900578160E070E0202FC4010E94520A73CF17
S11319101336A9F401FD02C0FF24F394C6010E940A
S1131920290D97FD60C08114910429F0F40180838E
S1131930C40101964C01FA94F110F0CF50C01B354C
S113194059F49E01A4016F2DC6010E94300BEC01D5
S1131950892B09F044C03EC0C6010E94850A97FD48
S113196042C01F3661F128F4143639F1193651F1A9
S113197028C0133771F0153701F123C08114910485
S113198029F0F4016082C40101964C01FA94FF200D
S113199071F0C6010E94290D3C0197FD08C00E9408
S11319A0FF0C892B59F3B601C3010E94A30D8114C6
S11319B09104A9F0F401108212C0006203C0006116
S11319C001C00064202FA4016F2DC6010E949E0A4D
S11319D0811105C0F6018381807329F406C000FDDE
S11319E00ACF539408CF552019F0852D90E002C0FA
S11319F08FEF9FEFCDB7DEB7EFE00C943C0E911163
S1131A000C941A0E803219F089508550C8F7089545
S1131A10FC010590061621F00020D9F7C0010895B5
S1131A203197CF010895FC01059061507040011079
S1131A30D8F7809590958E0F9F1F0895FC016150F3
S1131A40704001900110D8F7809590958E0F9F1FDC
S1131A500895CF93DF93EC012B8120FF33C026FF41
S1131A600AC02F7B2B838E819F8101969F838E8357
S1131A708A8190E029C022FF0FC0E881F98180812A
S1131A80082E000C990B009719F420622B831AC0BE
S1131A903196F983E8830EC0EA85FB85099597FFA3
S1131AA009C02B81019611F080E201C080E1822BF4
S1131AB08B8308C02E813F812F5F3F4F3F832E834E
S1131AC0992702C08FEF9FEFDF91CF9108950F9375
S1131AD01F93CF93DF93FB01238121FD03C08FEF7D
S1131AE09FEF2CC022FF16C0468157812481358187
S1131AF04217530744F4A081B1819D012F5F3F4FEA
S1131B00318320838C93268137812F5F3F4F378326
S1131B10268314C08B01EC01FB010084F185E02DC8
S1131B200995892BE1F6D80116968D919C9117970A
S1131B30019617969C938E931697CE01DF91CF91C1
S1131B401F910F910895FB01238120FF12C026FDF0
S1131B5010C08F3F3FEF930761F082832F7D206495
S1131B60238326813781215031093783268399279E
S1131B7008958FEF9FEF0895FA01AA27283051F1B5
S1131B80203181F1E8946F936E7F6E5F7F4F8F4FAA
S1131B909F4FAF4FB1E03ED0B4E03CD0670F781F09
S1131BA0891F9A1FA11D680F791F8A1F911DA11DEE
S1131BB06A0F711D811D911DA11D20D009F4689427
S1131BC03F912AE0269F11243019305D3193DEF6CF
S1131BD0CF010895462F4770405D4193B3E00FD085
S1131BE0C9F7F6CF462F4F70405D4A3318F0495D70
S1131BF031FD4052419302D0A9F7EACFB4E0A69553
S1131C009795879577956795BA95C9F70097610574
S1131C10710508959B01AC010A2E069457954795CA
S1131C2037952795BA95C9F7620F731F841F951FBF
S1131C30A01D08959927882708952F923F924F92C7
S1131C405F926F927F928F929F92AF92BF92CF9248
S1131C50DF92EF92FF920F931F93CF93DF93CDB751
S1131C60DEB7CA1BDB0B0FB6F894DEBF0FBECDBFC9
S1131C7009942A88398848885F846E847D848C849A
S1131C809B84AA84B984C884DF80EE80FD800C81A3
S1131C901B81AA81B981CE0FD11D0FB6F894DEBF86
S10F1CA00FBECDBFED010895F894FFCFF6
S1131CAC25640025326425326425326400253032E3
S1131CBC64253032642530326400244750524D433D
S1131CCC0024474E524D43002C00256325633A25CE
S1131CDC632563004B4D5048004B6E6F74730000CA
S1131CEC0000000000005F00000007000700147FE4
S1131CFC147F14242A7F2A1223130864623649554C
S1131D0C22500005030000001C2241000041221C4B
S1131D1C0014083E081408083E080800503000005F
S1131D2C0808080808000060000020100804023E9F
S1131D3C5149453E00427F40004261514946214190
S1131D4C454B311814127F1027454545393C4A49F7
S1131D5C493001710905033649494936064949296F
S1131D6C1E003636000000563600000814224100CE
S1131D7C1414141414004122140802015109063ECF
S1131D8C415D551E7E1111117E7F494949363E41F4
S1131D9C4141227F4141221C7F494949417F090924
S1131DAC09013E4149497A7F0808087F00417F4177
S1131DBC002040413F017F081422417F40404040B5
S1131DCC7F020C027F7F0408107F3E4141413E7F1D
S1131DDC090909063E4151215E7F091929464649E4
S1131DEC49493101017F01013F4040403F1F2040E0
S1131DFC201F3F4038403F631408146307087008E1
S1131E0C076151494543007F4141000204081020F9
S1131E1C0041417F00040201020440404040400064
S1131E2C01020400083641410000007F000000411B
S1131E3C41360802010204027F7F7F7F7F0000008D
S1131E4C0000000000000000000000000000000082
S1131E5C0000000000000000000000000000000072
S1131E6C0000000000000000000000000000000062
S1131E7C0000000000000000000000000000000052
S1131E8C0000000000000000000000000000000042
S1131E9C0000000000000000000000000000000032
S1131EAC0000000000000000000000000000000022
S1131EBC0000000000000000000000000000000012
S9030000FC
